{
  "contractName": "DEX",
  "abi": [
    {
      "inputs": [
        {
          "internalType": "address",
          "name": "tokenAddress",
          "type": "address"
        }
      ],
      "stateMutability": "nonpayable",
      "type": "constructor"
    },
    {
      "anonymous": false,
      "inputs": [
        {
          "indexed": true,
          "internalType": "address",
          "name": "provider",
          "type": "address"
        },
        {
          "indexed": false,
          "internalType": "uint256",
          "name": "ethAmount",
          "type": "uint256"
        },
        {
          "indexed": false,
          "internalType": "uint256",
          "name": "tokenAmount",
          "type": "uint256"
        }
      ],
      "name": "LiquidityAdded",
      "type": "event"
    },
    {
      "anonymous": false,
      "inputs": [
        {
          "indexed": true,
          "internalType": "address",
          "name": "provider",
          "type": "address"
        },
        {
          "indexed": false,
          "internalType": "uint256",
          "name": "ethAmount",
          "type": "uint256"
        },
        {
          "indexed": false,
          "internalType": "uint256",
          "name": "tokenAmount",
          "type": "uint256"
        }
      ],
      "name": "LiquidityRemoved",
      "type": "event"
    },
    {
      "anonymous": false,
      "inputs": [
        {
          "indexed": true,
          "internalType": "address",
          "name": "user",
          "type": "address"
        },
        {
          "indexed": false,
          "internalType": "uint256",
          "name": "ethAmount",
          "type": "uint256"
        },
        {
          "indexed": false,
          "internalType": "uint256",
          "name": "tokenAmount",
          "type": "uint256"
        }
      ],
      "name": "TokensSwapped",
      "type": "event"
    },
    {
      "inputs": [
        {
          "internalType": "address",
          "name": "",
          "type": "address"
        }
      ],
      "name": "liquidity",
      "outputs": [
        {
          "internalType": "uint256",
          "name": "",
          "type": "uint256"
        }
      ],
      "stateMutability": "view",
      "type": "function"
    },
    {
      "inputs": [],
      "name": "token",
      "outputs": [
        {
          "internalType": "contract MyToken",
          "name": "",
          "type": "address"
        }
      ],
      "stateMutability": "view",
      "type": "function"
    },
    {
      "inputs": [],
      "name": "totalLiquidity",
      "outputs": [
        {
          "internalType": "uint256",
          "name": "",
          "type": "uint256"
        }
      ],
      "stateMutability": "view",
      "type": "function"
    },
    {
      "inputs": [
        {
          "internalType": "uint256",
          "name": "tokenAmount",
          "type": "uint256"
        }
      ],
      "name": "addLiquidity",
      "outputs": [],
      "stateMutability": "payable",
      "type": "function"
    },
    {
      "inputs": [
        {
          "internalType": "uint256",
          "name": "ethAmount",
          "type": "uint256"
        }
      ],
      "name": "removeLiquidity",
      "outputs": [],
      "stateMutability": "nonpayable",
      "type": "function"
    },
    {
      "inputs": [],
      "name": "swapEthForTokens",
      "outputs": [],
      "stateMutability": "payable",
      "type": "function"
    },
    {
      "inputs": [
        {
          "internalType": "uint256",
          "name": "tokenAmount",
          "type": "uint256"
        }
      ],
      "name": "swapTokensForEth",
      "outputs": [],
      "stateMutability": "nonpayable",
      "type": "function"
    }
  ],
  "bytecode": "0x608060405234801562000010575f80fd5b50604051620010a7380380620010a78339818101604052810190620000369190620000e1565b805f806101000a81548173ffffffffffffffffffffffffffffffffffffffff021916908373ffffffffffffffffffffffffffffffffffffffff1602179055505062000111565b5f80fd5b5f73ffffffffffffffffffffffffffffffffffffffff82169050919050565b5f620000ab8262000080565b9050919050565b620000bd816200009f565b8114620000c8575f80fd5b50565b5f81519050620000db81620000b2565b92915050565b5f60208284031215620000f957620000f86200007c565b5b5f6200010884828501620000cb565b91505092915050565b610f88806200011f5f395ff3fe60806040526004361061006f575f3560e01c8063b14e055e1161004d578063b14e055e146100e1578063b28805f4146100eb578063b8c876b114610113578063fc0c546a1461014f5761006f565b806315770f921461007357806351c6590a1461009d5780639c8f9f23146100b9575b5f80fd5b34801561007e575f80fd5b50610087610179565b6040516100949190610a8c565b60405180910390f35b6100b760048036038101906100b29190610ad3565b61017f565b005b3480156100c4575f80fd5b506100df60048036038101906100da9190610ad3565b61031e565b005b6100e961062c565b005b3480156100f6575f80fd5b50610111600480360381019061010c9190610ad3565b610813565b005b34801561011e575f80fd5b5061013960048036038101906101349190610b58565b610a3c565b6040516101469190610a8c565b60405180910390f35b34801561015a575f80fd5b50610163610a51565b6040516101709190610bde565b60405180910390f35b60015481565b5f8054906101000a900473ffffffffffffffffffffffffffffffffffffffff1673ffffffffffffffffffffffffffffffffffffffff166323b872dd3330846040518463ffffffff1660e01b81526004016101db93929190610c06565b6020604051808303815f875af11580156101f7573d5f803e3d5ffd5b505050506040513d601f19601f8201168201806040525081019061021b9190610c70565b61025a576040517f08c379a000000000000000000000000000000000000000000000000000000000815260040161025190610cf5565b60405180910390fd5b5f3490505f8160015461026d9190610d40565b90508160025f3373ffffffffffffffffffffffffffffffffffffffff1673ffffffffffffffffffffffffffffffffffffffff1681526020019081526020015f205f8282546102bb9190610d40565b92505081905550806001819055503373ffffffffffffffffffffffffffffffffffffffff167fac1d76749e5447b7b16f5ab61447e1bd502f3bb4807af3b28e620d1700a6ee458385604051610311929190610d73565b60405180910390a2505050565b8060025f3373ffffffffffffffffffffffffffffffffffffffff1673ffffffffffffffffffffffffffffffffffffffff1681526020019081526020015f2054101561039e576040517f08c379a000000000000000000000000000000000000000000000000000000000815260040161039590610de4565b60405180910390fd5b5f6001545f8054906101000a900473ffffffffffffffffffffffffffffffffffffffff1673ffffffffffffffffffffffffffffffffffffffff166370a08231306040518263ffffffff1660e01b81526004016103fa9190610e02565b602060405180830381865afa158015610415573d5f803e3d5ffd5b505050506040513d601f19601f820116820180604052508101906104399190610e2f565b836104449190610e5a565b61044e9190610ec8565b90508160025f3373ffffffffffffffffffffffffffffffffffffffff1673ffffffffffffffffffffffffffffffffffffffff1681526020019081526020015f205f82825461049c9190610ef8565b925050819055508160015f8282546104b49190610ef8565b925050819055503373ffffffffffffffffffffffffffffffffffffffff166108fc8390811502906040515f60405180830381858888f193505050501580156104fe573d5f803e3d5ffd5b505f8054906101000a900473ffffffffffffffffffffffffffffffffffffffff1673ffffffffffffffffffffffffffffffffffffffff1663a9059cbb33836040518363ffffffff1660e01b8152600401610559929190610f2b565b6020604051808303815f875af1158015610575573d5f803e3d5ffd5b505050506040513d601f19601f820116820180604052508101906105999190610c70565b6105d8576040517f08c379a00000000000000000000000000000000000000000000000000000000081526004016105cf90610cf5565b60405180910390fd5b3373ffffffffffffffffffffffffffffffffffffffff167f96cd817c6329656790ef8fba7675405193677d39619571282f5e21f3a98cd0598383604051610620929190610d73565b60405180910390a25050565b5f3490505f805f9054906101000a900473ffffffffffffffffffffffffffffffffffffffff1673ffffffffffffffffffffffffffffffffffffffff166370a08231306040518263ffffffff1660e01b815260040161068a9190610e02565b602060405180830381865afa1580156106a5573d5f803e3d5ffd5b505050506040513d601f19601f820116820180604052508101906106c99190610e2f565b90505f4782846106d99190610e5a565b6106e39190610ec8565b90505f8054906101000a900473ffffffffffffffffffffffffffffffffffffffff1673ffffffffffffffffffffffffffffffffffffffff1663a9059cbb33836040518363ffffffff1660e01b815260040161073f929190610f2b565b6020604051808303815f875af115801561075b573d5f803e3d5ffd5b505050506040513d601f19601f8201168201806040525081019061077f9190610c70565b6107be576040517f08c379a00000000000000000000000000000000000000000000000000000000081526004016107b590610cf5565b60405180910390fd5b3373ffffffffffffffffffffffffffffffffffffffff167f18704ae982dcd24a1beeeed3ecf045ab0520d7b7519b97adf3e4f40bf7efe3398483604051610806929190610d73565b60405180910390a2505050565b5f805f9054906101000a900473ffffffffffffffffffffffffffffffffffffffff1673ffffffffffffffffffffffffffffffffffffffff166370a08231306040518263ffffffff1660e01b815260040161086d9190610e02565b602060405180830381865afa158015610888573d5f803e3d5ffd5b505050506040513d601f19601f820116820180604052508101906108ac9190610e2f565b90505f8147846108bc9190610e5a565b6108c69190610ec8565b90505f8054906101000a900473ffffffffffffffffffffffffffffffffffffffff1673ffffffffffffffffffffffffffffffffffffffff166323b872dd3330866040518463ffffffff1660e01b815260040161092493929190610c06565b6020604051808303815f875af1158015610940573d5f803e3d5ffd5b505050506040513d601f19601f820116820180604052508101906109649190610c70565b6109a3576040517f08c379a000000000000000000000000000000000000000000000000000000000815260040161099a90610cf5565b60405180910390fd5b3373ffffffffffffffffffffffffffffffffffffffff166108fc8290811502906040515f60405180830381858888f193505050501580156109e6573d5f803e3d5ffd5b503373ffffffffffffffffffffffffffffffffffffffff167f18704ae982dcd24a1beeeed3ecf045ab0520d7b7519b97adf3e4f40bf7efe3398285604051610a2f929190610d73565b60405180910390a2505050565b6002602052805f5260405f205f915090505481565b5f8054906101000a900473ffffffffffffffffffffffffffffffffffffffff1681565b5f819050919050565b610a8681610a74565b82525050565b5f602082019050610a9f5f830184610a7d565b92915050565b5f80fd5b610ab281610a74565b8114610abc575f80fd5b50565b5f81359050610acd81610aa9565b92915050565b5f60208284031215610ae857610ae7610aa5565b5b5f610af584828501610abf565b91505092915050565b5f73ffffffffffffffffffffffffffffffffffffffff82169050919050565b5f610b2782610afe565b9050919050565b610b3781610b1d565b8114610b41575f80fd5b50565b5f81359050610b5281610b2e565b92915050565b5f60208284031215610b6d57610b6c610aa5565b5b5f610b7a84828501610b44565b91505092915050565b5f819050919050565b5f610ba6610ba1610b9c84610afe565b610b83565b610afe565b9050919050565b5f610bb782610b8c565b9050919050565b5f610bc882610bad565b9050919050565b610bd881610bbe565b82525050565b5f602082019050610bf15f830184610bcf565b92915050565b610c0081610b1d565b82525050565b5f606082019050610c195f830186610bf7565b610c266020830185610bf7565b610c336040830184610a7d565b949350505050565b5f8115159050919050565b610c4f81610c3b565b8114610c59575f80fd5b50565b5f81519050610c6a81610c46565b92915050565b5f60208284031215610c8557610c84610aa5565b5b5f610c9284828501610c5c565b91505092915050565b5f82825260208201905092915050565b7f546f6b656e207472616e73666572206661696c65642e000000000000000000005f82015250565b5f610cdf601683610c9b565b9150610cea82610cab565b602082019050919050565b5f6020820190508181035f830152610d0c81610cd3565b9050919050565b7f4e487b71000000000000000000000000000000000000000000000000000000005f52601160045260245ffd5b5f610d4a82610a74565b9150610d5583610a74565b9250828201905080821115610d6d57610d6c610d13565b5b92915050565b5f604082019050610d865f830185610a7d565b610d936020830184610a7d565b9392505050565b7f4e6f7420656e6f756768206c69717569646974792070726f76696465642e00005f82015250565b5f610dce601e83610c9b565b9150610dd982610d9a565b602082019050919050565b5f6020820190508181035f830152610dfb81610dc2565b9050919050565b5f602082019050610e155f830184610bf7565b92915050565b5f81519050610e2981610aa9565b92915050565b5f60208284031215610e4457610e43610aa5565b5b5f610e5184828501610e1b565b91505092915050565b5f610e6482610a74565b9150610e6f83610a74565b9250828202610e7d81610a74565b91508282048414831517610e9457610e93610d13565b5b5092915050565b7f4e487b71000000000000000000000000000000000000000000000000000000005f52601260045260245ffd5b5f610ed282610a74565b9150610edd83610a74565b925082610eed57610eec610e9b565b5b828204905092915050565b5f610f0282610a74565b9150610f0d83610a74565b9250828203905081811115610f2557610f24610d13565b5b92915050565b5f604082019050610f3e5f830185610bf7565b610f4b6020830184610a7d565b939250505056fea2646970667358221220f8ccfd2bc2a9a06d206e538f2a6b1d95bd667fae35f1f3cea3d5d9b05f6d748764736f6c63430008150033",
  "immutableReferences": {},
  "source": "// SPDX-License-Identifier: MIT\npragma solidity ^0.8.0;\n\nimport \"./MyToken.sol\";\n\ncontract DEX {\n    MyToken public token;\n    uint256 public totalLiquidity;\n    mapping(address => uint256) public liquidity;\n\n    event LiquidityAdded(address indexed provider, uint256 ethAmount, uint256 tokenAmount);\n    event LiquidityRemoved(address indexed provider, uint256 ethAmount, uint256 tokenAmount);\n    event TokensSwapped(address indexed user, uint256 ethAmount, uint256 tokenAmount);\n\n    constructor(address tokenAddress) {\n        token = MyToken(tokenAddress);\n    }\n\n    function addLiquidity(uint256 tokenAmount) public payable {\n        require(token.transferFrom(msg.sender, address(this), tokenAmount), \"Token transfer failed.\");\n        uint256 ethAmount = msg.value;\n        uint256 newTotalLiquidity = totalLiquidity + ethAmount;\n        liquidity[msg.sender] += ethAmount;\n        totalLiquidity = newTotalLiquidity;\n        emit LiquidityAdded(msg.sender, ethAmount, tokenAmount);\n    }\n\n    function removeLiquidity(uint256 ethAmount) public {\n        require(liquidity[msg.sender] >= ethAmount, \"Not enough liquidity provided.\");\n        uint256 tokenAmount = (ethAmount * token.balanceOf(address(this))) / totalLiquidity;\n        liquidity[msg.sender] -= ethAmount;\n        totalLiquidity -= ethAmount;\n        payable(msg.sender).transfer(ethAmount);\n        require(token.transfer(msg.sender, tokenAmount), \"Token transfer failed.\");\n        emit LiquidityRemoved(msg.sender, ethAmount, tokenAmount);\n    }\n\n    function swapEthForTokens() public payable {\n        uint256 ethAmount = msg.value;\n        uint256 tokenReserve = token.balanceOf(address(this));\n        uint256 tokenAmount = (ethAmount * tokenReserve) / address(this).balance;\n        require(token.transfer(msg.sender, tokenAmount), \"Token transfer failed.\");\n        emit TokensSwapped(msg.sender, ethAmount, tokenAmount);\n    }\n\n    function swapTokensForEth(uint256 tokenAmount) public {\n        uint256 tokenReserve = token.balanceOf(address(this));\n        uint256 ethAmount = (tokenAmount * address(this).balance) / tokenReserve;\n        require(token.transferFrom(msg.sender, address(this), tokenAmount), \"Token transfer failed.\");\n        payable(msg.sender).transfer(ethAmount);\n        emit TokensSwapped(msg.sender, ethAmount, tokenAmount);\n    }\n}",
  "sourcePath": "/Users/mohamedmoustafa/Web3 projects/DecentralizedTokenExchange/contracts/DEX.sol",
  "compiler": {
    "name": "solc",
    "version": "0.8.21+commit.d9974bed.Emscripten.clang"
  },
  "schemaVersion": "3.4.16",
  "updatedAt": "2025-04-09T06:45:38.981Z",
  "devdoc": {
    "kind": "dev",
    "methods": {},
    "version": 1
  },
  "userdoc": {
    "kind": "user",
    "methods": {},
    "version": 1
  }
}